{
  "contractName": "FlashLoanArbitrage",
  "abi": [
    {
      "inputs": [
        {
          "internalType": "address",
          "name": "_addressProvider",
          "type": "address"
        }
      ],
      "stateMutability": "nonpayable",
      "type": "constructor"
    },
    {
      "inputs": [],
      "name": "ADDRESSES_PROVIDER",
      "outputs": [
        {
          "internalType": "contract IPoolAddressesProvider",
          "name": "",
          "type": "address"
        }
      ],
      "stateMutability": "view",
      "type": "function",
      "constant": true
    },
    {
      "inputs": [],
      "name": "POOL",
      "outputs": [
        {
          "internalType": "contract IPool",
          "name": "",
          "type": "address"
        }
      ],
      "stateMutability": "view",
      "type": "function",
      "constant": true
    },
    {
      "stateMutability": "payable",
      "type": "receive",
      "payable": true
    },
    {
      "inputs": [
        {
          "internalType": "address",
          "name": "_address",
          "type": "address"
        },
        {
          "internalType": "bool",
          "name": "_permission",
          "type": "bool"
        }
      ],
      "name": "setGuardian",
      "outputs": [],
      "stateMutability": "nonpayable",
      "type": "function"
    },
    {
      "inputs": [
        {
          "internalType": "address",
          "name": "_address",
          "type": "address"
        },
        {
          "internalType": "bool",
          "name": "_permission",
          "type": "bool"
        }
      ],
      "name": "setGuardianOwner",
      "outputs": [],
      "stateMutability": "nonpayable",
      "type": "function"
    },
    {
      "inputs": [
        {
          "internalType": "bytes",
          "name": "_params",
          "type": "bytes"
        },
        {
          "internalType": "address",
          "name": "_asset",
          "type": "address"
        },
        {
          "internalType": "uint256",
          "name": "_amount",
          "type": "uint256"
        }
      ],
      "name": "triangularArbitrageWithFlashLoan",
      "outputs": [],
      "stateMutability": "nonpayable",
      "type": "function"
    },
    {
      "inputs": [
        {
          "internalType": "address",
          "name": "asset",
          "type": "address"
        },
        {
          "internalType": "uint256",
          "name": "amount",
          "type": "uint256"
        },
        {
          "internalType": "uint256",
          "name": "premium",
          "type": "uint256"
        },
        {
          "internalType": "address",
          "name": "initiator",
          "type": "address"
        },
        {
          "internalType": "bytes",
          "name": "params",
          "type": "bytes"
        }
      ],
      "name": "executeOperation",
      "outputs": [
        {
          "internalType": "bool",
          "name": "",
          "type": "bool"
        }
      ],
      "stateMutability": "nonpayable",
      "type": "function"
    },
    {
      "inputs": [
        {
          "internalType": "uint256",
          "name": "_amount",
          "type": "uint256"
        },
        {
          "internalType": "address[]",
          "name": "routers",
          "type": "address[]"
        },
        {
          "internalType": "address[]",
          "name": "tokens",
          "type": "address[]"
        }
      ],
      "name": "estimateTrade",
      "outputs": [
        {
          "internalType": "uint256",
          "name": "",
          "type": "uint256"
        }
      ],
      "stateMutability": "view",
      "type": "function",
      "constant": true
    },
    {
      "inputs": [
        {
          "internalType": "address",
          "name": "router",
          "type": "address"
        },
        {
          "internalType": "address",
          "name": "_tokenIn",
          "type": "address"
        },
        {
          "internalType": "address",
          "name": "_tokenOut",
          "type": "address"
        },
        {
          "internalType": "uint256",
          "name": "_amount",
          "type": "uint256"
        }
      ],
      "name": "getAmountOutMin",
      "outputs": [
        {
          "internalType": "uint256",
          "name": "",
          "type": "uint256"
        }
      ],
      "stateMutability": "view",
      "type": "function",
      "constant": true
    },
    {
      "inputs": [
        {
          "internalType": "address[]",
          "name": "routers",
          "type": "address[]"
        },
        {
          "internalType": "address[]",
          "name": "tokens",
          "type": "address[]"
        },
        {
          "internalType": "uint256",
          "name": "amount",
          "type": "uint256"
        }
      ],
      "name": "triangularDexArb",
      "outputs": [],
      "stateMutability": "nonpayable",
      "type": "function"
    },
    {
      "inputs": [
        {
          "internalType": "address",
          "name": "_tokenContractAddress",
          "type": "address"
        }
      ],
      "name": "getBalance",
      "outputs": [
        {
          "internalType": "uint256",
          "name": "",
          "type": "uint256"
        }
      ],
      "stateMutability": "view",
      "type": "function",
      "constant": true
    },
    {
      "inputs": [],
      "name": "recoverEth",
      "outputs": [],
      "stateMutability": "nonpayable",
      "type": "function"
    },
    {
      "inputs": [
        {
          "internalType": "address",
          "name": "tokenAddress",
          "type": "address"
        }
      ],
      "name": "recoverTokens",
      "outputs": [],
      "stateMutability": "nonpayable",
      "type": "function"
    }
  ],
  "bytecode": "0x60c06040523480156200001157600080fd5b5060405162001f3338038062001f3383398101604081905262000034916200010e565b80806001600160a01b03166080816001600160a01b031660601b81525050806001600160a01b031663026b1d5f6040518163ffffffff1660e01b815260040160206040518083038186803b1580156200008c57600080fd5b505afa158015620000a1573d6000803e3d6000fd5b505050506040513d601f19601f82011682018060405250810190620000c791906200010e565b60601b6001600160601b03191660a0525050336000908152602081815260408083208054600160ff199182168117909255928190529220805490911690911790556200013e565b60006020828403121562000120578081fd5b81516001600160a01b038116811462000137578182fd5b9392505050565b60805160601c60a05160601c611dbb62000178600039600081816105eb01528181610ad40152610b9c0152600061024a0152611dbb6000f3fe6080604052600436106100ab5760003560e01c806343cf6f241161006457806343cf6f241461019e5780637535d246146101be578063bcdb446b146101d3578063d8540016146101e8578063f27402dc14610208578063f8b2cb4f14610228576100b2565b80630542975c146100b757806316114acd146100e25780631b11d0ff146101045780632b8a1c5a146101315780632f1e6a7e1461015157806338e4845e14610171576100b2565b366100b257005b600080fd5b3480156100c357600080fd5b506100cc610248565b6040516100d991906119e8565b60405180910390f35b3480156100ee57600080fd5b506101026100fd3660046115d1565b61026c565b005b34801561011057600080fd5b5061012461011f366004611672565b6103a0565b6040516100d99190611a8f565b34801561013d57600080fd5b5061010261014c36600461163c565b61067b565b34801561015d57600080fd5b5061010261016c36600461163c565b6106d5565b34801561017d57600080fd5b5061019161018c366004611926565b61072f565b6040516100d99190611c35565b3480156101aa57600080fd5b506101916101b93660046115f2565b610972565b3480156101ca57600080fd5b506100cc610ad2565b3480156101df57600080fd5b50610102610af6565b3480156101f457600080fd5b50610102610203366004611864565b610b54565b34801561021457600080fd5b5061010261022336600461174e565b610c12565b34801561023457600080fd5b506101916102433660046115d1565b611292565b7f000000000000000000000000000000000000000000000000000000000000000081565b3360009081526001602052604090205460ff166102a45760405162461bcd60e51b815260040161029b90611a9a565b60405180910390fd5b6040516370a0823160e01b815281906001600160a01b0382169063a9059cbb90339083906370a08231906102dc9030906004016119e8565b60206040518083038186803b1580156102f457600080fd5b505afa158015610308573d6000803e3d6000fd5b505050506040513d601f19601f8201168201806040525081019061032c919061190e565b6040518363ffffffff1660e01b8152600401610349929190611a76565b602060405180830381600087803b15801561036357600080fd5b505af1158015610377573d6000803e3d6000fd5b505050506040513d601f19601f8201168201806040525081019061039b9190611848565b505050565b3360009081526020819052604081205460ff166103cf5760405162461bcd60e51b815260040161029b90611b22565b60006103dd83850185611713565b90506000600282516103ef9190611cf9565b67ffffffffffffffff81111561041557634e487b7160e01b600052604160045260246000fd5b60405190808252806020026020018201604052801561043e578160200160208202803683370190505b5090506000600283516104519190611cf9565b67ffffffffffffffff81111561047757634e487b7160e01b600052604160045260246000fd5b6040519080825280602002602001820160405280156104a0578160200160208202803683370190505b50905060005b83518110156105ac578251811015610525578381815181106104d857634e487b7160e01b600052603260045260246000fd5b602002602001015183828151811061050057634e487b7160e01b600052603260045260246000fd5b60200260200101906001600160a01b031690816001600160a01b03168152505061059a565b83818151811061054557634e487b7160e01b600052603260045260246000fd5b60200260200101518283518361055b9190611d19565b8151811061057957634e487b7160e01b600052603260045260246000fd5b60200260200101906001600160a01b031690816001600160a01b0316815250505b806105a481611d30565b9150506104a6565b506105b882828b610c12565b60006105c4898b611ce1565b60405163095ea7b360e01b81529091506001600160a01b038c169063095ea7b390610615907f0000000000000000000000000000000000000000000000000000000000000000908590600401611a76565b602060405180830381600087803b15801561062f57600080fd5b505af1158015610643573d6000803e3d6000fd5b505050506040513d601f19601f820116820180604052508101906106679190611848565b5060019450505050505b9695505050505050565b3360009081526001602052604090205460ff166106aa5760405162461bcd60e51b815260040161029b90611a9a565b6001600160a01b03919091166000908152602081905260409020805460ff1916911515919091179055565b3360009081526001602052604090205460ff166107045760405162461bcd60e51b815260040161029b90611a9a565b6001600160a01b03919091166000908152600160205260409020805460ff1916911515919091179055565b60008080805b8681101561096557806107fe576107f488888381811061076557634e487b7160e01b600052603260045260246000fd5b905060200201602081019061077a91906115d1565b87878481811061079a57634e487b7160e01b600052603260045260246000fd5b90506020020160208101906107af91906115d1565b88886107bc866001611ce1565b8181106107d957634e487b7160e01b600052603260045260246000fd5b90506020020160208101906107ee91906115d1565b8c610972565b9250829150610953565b610809600188611d19565b8110156108c2576107f488888381811061083357634e487b7160e01b600052603260045260246000fd5b905060200201602081019061084891906115d1565b87878481811061086857634e487b7160e01b600052603260045260246000fd5b905060200201602081019061087d91906115d1565b888861088a866001611ce1565b8181106108a757634e487b7160e01b600052603260045260246000fd5b90506020020160208101906108bc91906115d1565b85610972565b6109508888838181106108e557634e487b7160e01b600052603260045260246000fd5b90506020020160208101906108fa91906115d1565b87878481811061091a57634e487b7160e01b600052603260045260246000fd5b905060200201602081019061092f91906115d1565b888860008181106108a757634e487b7160e01b600052603260045260246000fd5b92505b8061095d81611d30565b915050610735565b5090979650505050505050565b604080516002808252606080830184526000939092919060208301908036833701905050905084816000815181106109ba57634e487b7160e01b600052603260045260246000fd5b60200260200101906001600160a01b031690816001600160a01b03168152505083816001815181106109fc57634e487b7160e01b600052603260045260246000fd5b6001600160a01b03928316602091820292909201015260405163d06ca61f60e01b815260009188169063d06ca61f90610a3b9087908690600401611c3e565b60006040518083038186803b158015610a5357600080fd5b505afa158015610a67573d6000803e3d6000fd5b505050506040513d6000823e601f3d908101601f19168201604052610a8f91908101906117b8565b90508060018351610aa09190611d19565b81518110610abe57634e487b7160e01b600052603260045260246000fd5b602002602001015192505050949350505050565b7f000000000000000000000000000000000000000000000000000000000000000081565b3360009081526001602052604090205460ff16610b255760405162461bcd60e51b815260040161029b90611a9a565b60405133904780156108fc02916000818181858888f19350505050158015610b51573d6000803e3d6000fd5b50565b3360009081526001602052604090205460ff16610b835760405162461bcd60e51b815260040161029b90611a9a565b6040516310ac2ddf60e21b815230906001600160a01b037f000000000000000000000000000000000000000000000000000000000000000016906342b0b77c90610bda908490879087908a906000906004016119fc565b600060405180830381600087803b158015610bf457600080fd5b505af1158015610c08573d6000803e3d6000fd5b5050505050505050565b3360009081526020819052604090205460ff16610c415760405162461bcd60e51b815260040161029b90611b22565b8151835114610c625760405162461bcd60e51b815260040161029b90611bca565b6002835111610c835760405162461bcd60e51b815260040161029b90611b6d565b600082600081518110610ca657634e487b7160e01b600052603260045260246000fd5b60200260200101516001600160a01b03166370a08231306040518263ffffffff1660e01b8152600401610cd991906119e8565b60206040518083038186803b158015610cf157600080fd5b505afa158015610d05573d6000803e3d6000fd5b505050506040513d601f19601f82011682018060405250810190610d29919061190e565b9050600083600181518110610d4e57634e487b7160e01b600052603260045260246000fd5b60200260200101516001600160a01b03166370a08231306040518263ffffffff1660e01b8152600401610d8191906119e8565b60206040518083038186803b158015610d9957600080fd5b505afa158015610dad573d6000803e3d6000fd5b505050506040513d601f19601f82011682018060405250810190610dd1919061190e565b9050610e5785600081518110610df757634e487b7160e01b600052603260045260246000fd5b602002602001015185600081518110610e2057634e487b7160e01b600052603260045260246000fd5b602002602001015186600181518110610e4957634e487b7160e01b600052603260045260246000fd5b602002602001015186611349565b600084600181518110610e7a57634e487b7160e01b600052603260045260246000fd5b60200260200101516001600160a01b03166370a08231306040518263ffffffff1660e01b8152600401610ead91906119e8565b60206040518083038186803b158015610ec557600080fd5b505afa158015610ed9573d6000803e3d6000fd5b505050506040513d601f19601f82011682018060405250810190610efd919061190e565b90506000610f0b8383611d19565b905060015b60018851610f1e9190611d19565b81101561112e5786610f31826001611ce1565b81518110610f4f57634e487b7160e01b600052603260045260246000fd5b60200260200101516001600160a01b03166370a08231306040518263ffffffff1660e01b8152600401610f8291906119e8565b60206040518083038186803b158015610f9a57600080fd5b505afa158015610fae573d6000803e3d6000fd5b505050506040513d601f19601f82011682018060405250810190610fd2919061190e565b9350611061888281518110610ff757634e487b7160e01b600052603260045260246000fd5b602002602001015188838151811061101f57634e487b7160e01b600052603260045260246000fd5b6020026020010151898460016110359190611ce1565b8151811061105357634e487b7160e01b600052603260045260246000fd5b602002602001015185611349565b8661106d826001611ce1565b8151811061108b57634e487b7160e01b600052603260045260246000fd5b60200260200101516001600160a01b03166370a08231306040518263ffffffff1660e01b81526004016110be91906119e8565b60206040518083038186803b1580156110d657600080fd5b505afa1580156110ea573d6000803e3d6000fd5b505050506040513d601f19601f8201168201806040525081019061110e919061190e565b925061111a8484611d19565b91508061112681611d30565b915050610f10565b506111cb87600189516111419190611d19565b8151811061115f57634e487b7160e01b600052603260045260246000fd5b602002602001015187600189516111769190611d19565b8151811061119457634e487b7160e01b600052603260045260246000fd5b6020026020010151886000815181106111bd57634e487b7160e01b600052603260045260246000fd5b602002602001015184611349565b6000866000815181106111ee57634e487b7160e01b600052603260045260246000fd5b60200260200101516001600160a01b03166370a08231306040518263ffffffff1660e01b815260040161122191906119e8565b60206040518083038186803b15801561123957600080fd5b505afa15801561124d573d6000803e3d6000fd5b505050506040513d601f19601f82011682018060405250810190611271919061190e565b9050848111610c085760405162461bcd60e51b815260040161029b90611aeb565b3360009081526020819052604081205460ff166112c15760405162461bcd60e51b815260040161029b90611b22565b6040516370a0823160e01b81526000906001600160a01b038416906370a08231906112f09030906004016119e8565b60206040518083038186803b15801561130857600080fd5b505afa15801561131c573d6000803e3d6000fd5b505050506040513d601f19601f82011682018060405250810190611340919061190e565b9150505b919050565b60405163095ea7b360e01b81526001600160a01b0384169063095ea7b3906113779087908590600401611a76565b602060405180830381600087803b15801561139157600080fd5b505af11580156113a5573d6000803e3d6000fd5b505050506040513d601f19601f820116820180604052508101906113c99190611848565b506040805160028082526060808301845292602083019080368337019050509050838160008151811061140c57634e487b7160e01b600052603260045260246000fd5b60200260200101906001600160a01b031690816001600160a01b031681525050828160018151811061144e57634e487b7160e01b600052603260045260246000fd5b6001600160a01b039092166020928302919091019091015260006114744261012c611ce1565b6040516338ed173960e01b81529091506001600160a01b038716906338ed1739906114ac908690600190879030908890600401611c57565b600060405180830381600087803b1580156114c657600080fd5b505af11580156114da573d6000803e3d6000fd5b505050506040513d6000823e601f3d908101601f1916820160405261150291908101906117b8565b50505050505050565b80356001600160a01b038116811461134457600080fd5b60008083601f840112611533578182fd5b50813567ffffffffffffffff81111561154a578182fd5b602083019150836020808302850101111561156457600080fd5b9250929050565b600082601f83011261157b578081fd5b8135602061159061158b83611cbd565b611c93565b82815281810190858301838502870184018810156115ac578586fd5b855b85811015610965576115bf8261150b565b845292840192908401906001016115ae565b6000602082840312156115e2578081fd5b6115eb8261150b565b9392505050565b60008060008060808587031215611607578283fd5b6116108561150b565b935061161e6020860161150b565b925061162c6040860161150b565b9396929550929360600135925050565b6000806040838503121561164e578182fd5b6116578361150b565b9150602083013561166781611d77565b809150509250929050565b60008060008060008060a0878903121561168a578182fd5b6116938761150b565b955060208701359450604087013593506116af6060880161150b565b9250608087013567ffffffffffffffff808211156116cb578384fd5b818901915089601f8301126116de578384fd5b8135818111156116ec578485fd5b8a60208285010111156116fd578485fd5b6020830194508093505050509295509295509295565b600060208284031215611724578081fd5b813567ffffffffffffffff81111561173a578182fd5b6117468482850161156b565b949350505050565b600080600060608486031215611762578283fd5b833567ffffffffffffffff80821115611779578485fd5b6117858783880161156b565b9450602086013591508082111561179a578384fd5b506117a78682870161156b565b925050604084013590509250925092565b600060208083850312156117ca578182fd5b825167ffffffffffffffff8111156117e0578283fd5b8301601f810185136117f0578283fd5b80516117fe61158b82611cbd565b818152838101908385018584028501860189101561181a578687fd5b8694505b8385101561183c57805183526001949094019391850191850161181e565b50979650505050505050565b600060208284031215611859578081fd5b81516115eb81611d77565b600080600060608486031215611878578283fd5b833567ffffffffffffffff8082111561188f578485fd5b818601915086601f8301126118a2578485fd5b81356020828211156118b6576118b6611d61565b6118c8601f8301601f19168201611c93565b925081835288818386010111156118dd578687fd5b8181850182850137868183850101528296506118fa81890161150b565b955050505050604084013590509250925092565b60006020828403121561191f578081fd5b5051919050565b60008060008060006060868803121561193d578283fd5b85359450602086013567ffffffffffffffff8082111561195b578485fd5b61196789838a01611522565b9096509450604088013591508082111561197f578283fd5b5061198c88828901611522565b969995985093965092949392505050565b6000815180845260208085019450808401835b838110156119d55781516001600160a01b0316875295820195908201906001016119b0565b509495945050505050565b61ffff169052565b6001600160a01b0391909116815260200190565b600060018060a01b03808816835260208188168185015286604085015260a06060850152855191508160a0850152825b82811015611a485786810182015185820160c001528101611a2c565b82811115611a59578360c084870101525b5050601f01601f1916820160c001905061067160808301846119e0565b6001600160a01b03929092168252602082015260400190565b901515815260200190565b60208082526031908201527f4a7573742074686520677561726469616e734f776e65722063616e20657865636040820152703aba32903a3434b990333ab731ba34b7b760791b606082015260800190565b6020808252601e908201527f54726164652052657665727465642c204e6f2050726f666974204d6164650000604082015260600190565b6020808252602b908201527f477561726469616e206572726f723a207468697320616464726573732069732060408201526a1b9bdd08185b1b1bddd95960aa1b606082015260800190565b6020808252603b908201527f747269616e67756c6172446578417262282e2e29206572726f723a206174206c60408201527f65617374203320726f7574657273206172652072657175697265640000000000606082015260800190565b60208082526045908201527f747269616e67756c6172446578417262282e2e29206572726f723a20726f757460408201527f657273206c656e67746820646966666572732066726f6d20746f6b656e73206c6060820152640cadccee8d60db1b608082015260a00190565b90815260200190565b600083825260406020830152611746604083018461199d565b600086825285602083015260a06040830152611c7660a083018661199d565b6001600160a01b0394909416606083015250608001529392505050565b60405181810167ffffffffffffffff81118282101715611cb557611cb5611d61565b604052919050565b600067ffffffffffffffff821115611cd757611cd7611d61565b5060209081020190565b60008219821115611cf457611cf4611d4b565b500190565b600082611d1457634e487b7160e01b81526012600452602481fd5b500490565b600082821015611d2b57611d2b611d4b565b500390565b6000600019821415611d4457611d44611d4b565b5060010190565b634e487b7160e01b600052601160045260246000fd5b634e487b7160e01b600052604160045260246000fd5b8015158114610b5157600080fdfea264697066735822122001795d623b7e0f941afaf6e3bbde2d03e42a71ed1c168dddffb89351b4681d3f64736f6c63430008000033",
  "immutableReferences": {
    "9526": [
      {
        "length": 32,
        "start": 586
      }
    ],
    "9530": [
      {
        "length": 32,
        "start": 1515
      },
      {
        "length": 32,
        "start": 2772
      },
      {
        "length": 32,
        "start": 2972
      }
    ]
  },
  "source": "// SPDX-License-Identifier: agpl-3.0\r\npragma solidity 0.8.0;\r\n\r\nimport {IUniswapV2Router} from \"./Interfaces.sol\";\r\nimport \"@openzeppelin/contracts/access/Ownable.sol\";\r\nimport \"@openzeppelin/contracts/token/ERC20/IERC20.sol\";\r\nimport \"@ganache/console.log/console.sol\";\r\nimport \"./FlashLoanSimpleReceiverBase.sol\";\r\n\r\ncontract FlashLoanArbitrage is FlashLoanSimpleReceiverBase {\r\n\r\n    // permissions for who can use which function\r\n    mapping(address => bool) private guardians;\r\n    mapping(address => bool) private guardiansOwner;\r\n\r\n    constructor (address _addressProvider) FlashLoanSimpleReceiverBase(IPoolAddressesProvider(_addressProvider)) {\r\n        guardians[msg.sender] = true;\r\n        guardiansOwner[msg.sender] = true;\r\n    }\r\n\r\n    modifier onlyGuardianOwner() {\r\n        require(guardiansOwner[msg.sender], \"Just the guardiansOwner can execute this function\");\r\n        _;\r\n    }\r\n\r\n    function setGuardian(address _address, bool _permission) public onlyGuardianOwner {\r\n        guardians[_address] = _permission;\r\n    }\r\n\r\n    function setGuardianOwner(address _address, bool _permission) public onlyGuardianOwner {\r\n        guardiansOwner[_address] = _permission;\r\n    }\r\n\r\n    modifier onlyGuardians {\r\n        require(guardians[msg.sender], \"Guardian error: this address is not allowed\");\r\n        _;\r\n    }\r\n\r\n    /*\r\n    * @notice It swaps the tokens through all the routers by starting from a specific token with an amount\r\n    * borrowed from the AAVE V3 Pool\r\n    * @param _params - The encoded parameters of the list of routers and tokens\r\n    * @param _asset - The token that you are requesting for the loan\r\n    * @param _amount - The amount of _asset to ask for the loan\r\n    */\r\n    function triangularArbitrageWithFlashLoan(bytes memory _params, address _asset, uint256 _amount) public onlyGuardianOwner {\r\n        address receiverAddress = address(this);\r\n\r\n        POOL.flashLoanSimple(\r\n            receiverAddress,\r\n            _asset,\r\n            _amount,\r\n            _params,\r\n            0\r\n        );\r\n    }\r\n\r\n    /*\r\n    * @notice This function is called by the AAVE floashloan contract. It execute the trade with the amount loaned\r\n    * @param asset - The token requested for the loan\r\n    * @param amount - The amount of asset to ask for the loan\r\n    * @param premium - The fee to give back\r\n    * @param initiator - not used\r\n    * @param params - The encoded parameters of the list of routers and tokens\r\n    */\r\n    function executeOperation(\r\n        address asset,\r\n        uint256 amount,\r\n        uint256 premium,\r\n        address initiator,\r\n        bytes calldata params\r\n    )\r\n    external\r\n    override\r\n    onlyGuardians\r\n    returns (bool)\r\n    {\r\n\r\n        // start arbitrage\r\n        // params contains m odds addresses: the first m/2 are routers addresses, the remain are tokens addresses\r\n        (address[] memory addresses) = abi.decode(params, (address[]));\r\n\r\n        address[] memory routers = new address[]((addresses.length) / 2);\r\n        address[] memory tokens = new address[]((addresses.length) / 2);\r\n\r\n        // save the decoded addresses in the right list\r\n        for (uint i = 0; i < addresses.length; i++) {\r\n            if (i < routers.length) {\r\n                routers[i] = addresses[i];\r\n            }\r\n            else {\r\n                tokens[i-tokens.length] = addresses[i];\r\n            }\r\n        }\r\n\r\n        // execute the arbitrage\r\n        triangularDexArb(routers, tokens, amount);\r\n\r\n        // end arbitrage\r\n        uint amountOwing = amount + (premium);\r\n        IERC20(asset).approve(address(POOL), amountOwing);\r\n\r\n        return true;\r\n    }\r\n\r\n    /*\r\n    * @notice From a router, swap tokenA for tokenB by an input amount\r\n    * @param router - The router that will operate the swap\r\n    * @param _tokenIn - The token you are swapping\r\n    * @param _tokenOut - The type of token you want from the swap\r\n    * @param _amount - The amount of _tokenIn you are swapping\r\n    */\r\n    function swap(address router, address _tokenIn, address _tokenOut, uint256 _amount) private {\r\n        IERC20(_tokenIn).approve(router, _amount);\r\n        address[] memory path;\r\n        path = new address[](2);\r\n        path[0] = _tokenIn;\r\n        path[1] = _tokenOut;\r\n        uint deadline = block.timestamp + 300;\r\n        IUniswapV2Router(router).swapExactTokensForTokens(_amount, 1, path, address(this), deadline);\r\n    }\r\n\r\n    /*\r\n    * @notice Estimate the trade through n routers for n tokens. The 1th router will estimate the swap A for B, the 2th will estimate the swap B for C,\r\n    * the nth router will estimate the swap X for A. So it starts and end with A.\r\n    * @param _amount - The amount of tokens to swap at the beginning\r\n    * @param routers - The list of routers in which the tokens will be swapped\r\n    * @param tokens - The list of tokens to be swapped\r\n    */\r\n    function estimateTrade(uint256 _amount, address[] calldata routers, address[] calldata tokens) external view returns (uint256) {\r\n        uint amtBack = 0;\r\n        uint tmbAmtBack = 0;\r\n\r\n        for (uint i = 0; i < routers.length; i++) {\r\n            if (i == 0) {\r\n                amtBack = getAmountOutMin(routers[i], tokens[i], tokens[i + 1], _amount);\r\n                tmbAmtBack = amtBack;\r\n            }\r\n            else if (i < routers.length - 1) {\r\n                amtBack = getAmountOutMin(routers[i], tokens[i], tokens[i + 1], tmbAmtBack);\r\n                tmbAmtBack = amtBack;\r\n            }\r\n            else {\r\n                amtBack = getAmountOutMin(routers[i], tokens[i], tokens[0], tmbAmtBack);\r\n            }\r\n\r\n        }\r\n\r\n        return amtBack;\r\n    }\r\n\r\n    /*\r\n    * @notice Get how much tokenB you can get by giving n tokenA to some router\r\n    * @param router - The router where the swap will be simulated\r\n    * @param _tokenIn - The token to swap\r\n    * @param _tokenOut - The type of token you want\r\n    * @param _amount - The amount of _tokenIn to swap\r\n    */\r\n    function getAmountOutMin(address router, address _tokenIn, address _tokenOut, uint256 _amount) public view returns (uint256) {\r\n        address[] memory path;\r\n        path = new address[](2);\r\n        path[0] = _tokenIn;\r\n        path[1] = _tokenOut;\r\n        uint256[] memory amountOutMins = IUniswapV2Router(router).getAmountsOut(_amount, path);\r\n        return amountOutMins[path.length - 1];\r\n    }\r\n\r\n    /*\r\n    * @notice Swap through n routers for n tokens. The 1th router will swap A for B, the 2th will swap B for C,\r\n    * the nth router will swap X for A. So it starts and end with A.\r\n    * @param amount - The amount of tokens to swap at the beginning\r\n    * @param routers - The list of routers in which the tokens will be swapped\r\n    * @param tokens - The list of tokens to be swapped\r\n    */\r\n    function triangularDexArb(address[] memory routers, address[] memory tokens, uint amount) public onlyGuardians {\r\n\r\n        require(routers.length == tokens.length, \"triangularDexArb(..) error: routers length differs from tokens length\");\r\n        require(routers.length > 2, \"triangularDexArb(..) error: at least 3 routers are required\");\r\n\r\n        uint startBalance = IERC20(tokens[0]).balanceOf(address(this));\r\n        uint tokenInitialBalance = IERC20(tokens[1]).balanceOf(address(this));\r\n\r\n        swap(routers[0], tokens[0], tokens[1], amount);\r\n\r\n        uint tokenBalance = IERC20(tokens[1]).balanceOf(address(this));\r\n        uint tradeableAmount = tokenBalance - tokenInitialBalance;\r\n\r\n        for (uint i = 1; i < routers.length - 1; i++) {\r\n\r\n            tokenInitialBalance = IERC20(tokens[i + 1]).balanceOf(address(this));\r\n            swap(routers[i], tokens[i], tokens[i + 1], tradeableAmount);\r\n            tokenBalance = IERC20(tokens[i + 1]).balanceOf(address(this));\r\n            tradeableAmount = tokenBalance - tokenInitialBalance;\r\n\r\n        }\r\n\r\n        swap(routers[routers.length - 1], tokens[tokens.length - 1], tokens[0], tradeableAmount);\r\n        uint endBalance = IERC20(tokens[0]).balanceOf(address(this));\r\n\r\n        require(endBalance > startBalance, \"Trade Reverted, No Profit Made\");\r\n    }\r\n\r\n    function getBalance(address _tokenContractAddress) public onlyGuardians view returns (uint256) {\r\n        uint balance = IERC20(_tokenContractAddress).balanceOf(address(this));\r\n        return balance;\r\n    }\r\n\r\n    // transfer the cash from this contract to the owner\r\n    function recoverEth() external onlyGuardianOwner {\r\n        payable(msg.sender).transfer(address(this).balance);\r\n    }\r\n\r\n    // transfer the token from this contract to the owner\r\n    function recoverTokens(address tokenAddress) external onlyGuardianOwner {\r\n        IERC20 token = IERC20(tokenAddress);\r\n        token.transfer(msg.sender, token.balanceOf(address(this)));\r\n    }\r\n\r\n    receive() external payable {}\r\n}\r\n",
  "sourcePath": "C:\\Users\\odraode\\Desktop\\arbitrage\\arbitrage_dex\\contracts\\FlashLoanArbitrage.sol",
  "compiler": {
    "name": "solc",
    "version": "0.8.0+commit.c7dfd78e.Emscripten.clang"
  },
  "schemaVersion": "3.4.10",
  "updatedAt": "2023-02-14T10:03:55.498Z",
  "networkType": "ethereum",
  "devdoc": {
    "kind": "dev",
    "methods": {
      "executeOperation(address,uint256,uint256,address,bytes)": {
        "details": "Ensure that the contract can return the debt + premium, e.g., has      enough funds to repay and has approved the Pool to pull the total amount",
        "params": {
          "amount": "The amount of the flash-borrowed asset",
          "asset": "The address of the flash-borrowed asset",
          "initiator": "The address of the flashloan initiator",
          "params": "The byte-encoded params passed when initiating the flashloan",
          "premium": "The fee of the flash-borrowed asset"
        },
        "returns": {
          "_0": "True if the execution of the operation succeeds, false otherwise"
        }
      }
    },
    "version": 1
  },
  "userdoc": {
    "kind": "user",
    "methods": {
      "executeOperation(address,uint256,uint256,address,bytes)": {
        "notice": "Executes an operation after receiving the flash-borrowed asset"
      }
    },
    "version": 1
  }
}