{
  "contractName": "UniswapV2Router",
  "abi": [
    {
      "inputs": [
        {
          "internalType": "address",
          "name": "router",
          "type": "address"
        },
        {
          "internalType": "address",
          "name": "_tokenIn",
          "type": "address"
        },
        {
          "internalType": "address",
          "name": "_tokenOut",
          "type": "address"
        },
        {
          "internalType": "uint256",
          "name": "_amount",
          "type": "uint256"
        }
      ],
      "name": "getAmountOutMin",
      "outputs": [
        {
          "internalType": "uint256",
          "name": "",
          "type": "uint256"
        }
      ],
      "stateMutability": "view",
      "type": "function",
      "constant": true
    },
    {
      "inputs": [
        {
          "internalType": "address",
          "name": "router",
          "type": "address"
        },
        {
          "internalType": "address",
          "name": "_tokenIn",
          "type": "address"
        },
        {
          "internalType": "address",
          "name": "_tokenOut",
          "type": "address"
        },
        {
          "internalType": "uint256",
          "name": "_amount",
          "type": "uint256"
        }
      ],
      "name": "getAmountInMin",
      "outputs": [
        {
          "internalType": "uint256",
          "name": "",
          "type": "uint256"
        }
      ],
      "stateMutability": "view",
      "type": "function",
      "constant": true
    },
    {
      "inputs": [
        {
          "internalType": "uint256",
          "name": "_amount",
          "type": "uint256"
        },
        {
          "internalType": "address",
          "name": "_wethTokenIn",
          "type": "address"
        },
        {
          "internalType": "address",
          "name": "_tokenOut",
          "type": "address"
        },
        {
          "internalType": "address",
          "name": "_router",
          "type": "address"
        },
        {
          "internalType": "address",
          "name": "_to",
          "type": "address"
        }
      ],
      "name": "swapEthForTokens",
      "outputs": [],
      "stateMutability": "payable",
      "type": "function",
      "payable": true
    },
    {
      "inputs": [
        {
          "internalType": "address",
          "name": "_router",
          "type": "address"
        }
      ],
      "name": "getWethAddress",
      "outputs": [
        {
          "internalType": "address",
          "name": "",
          "type": "address"
        }
      ],
      "stateMutability": "view",
      "type": "function",
      "constant": true
    }
  ],
  "bytecode": "0x608060405234801561001057600080fd5b5061083e806100206000396000f3fe60806040526004361061003f5760003560e01c80632b5346a51461004457806343cf6f241461007a57806346f01ba01461009a578063c71043c1146100af575b600080fd5b34801561005057600080fd5b5061006461005f36600461056e565b6100dc565b6040516100719190610736565b60405180910390f35b34801561008657600080fd5b5061006461009536600461056e565b610230565b6100ad6100a8366004610678565b61037c565b005b3480156100bb57600080fd5b506100cf6100ca366004610536565b6104bb565b6040516100719190610722565b6040805160028082526060808301845260009390929190602083019080368337019050509050848160008151811061012457634e487b7160e01b600052603260045260246000fd5b60200260200101906001600160a01b031690816001600160a01b031681525050838160018151811061016657634e487b7160e01b600052603260045260246000fd5b6001600160a01b0392831660209182029290920101526040516307c0329d60e21b8152600091881690631f00ca74906101a5908790869060040161073f565b60006040518083038186803b1580156101bd57600080fd5b505afa1580156101d1573d6000803e3d6000fd5b505050506040513d6000823e601f3d908101601f191682016040526101f991908101906105be565b90508060008151811061021c57634e487b7160e01b600052603260045260246000fd5b602002602001015192505050949350505050565b6040805160028082526060808301845260009390929190602083019080368337019050509050848160008151811061027857634e487b7160e01b600052603260045260246000fd5b60200260200101906001600160a01b031690816001600160a01b03168152505083816001815181106102ba57634e487b7160e01b600052603260045260246000fd5b6001600160a01b03928316602091820292909201015260405163d06ca61f60e01b815260009188169063d06ca61f906102f9908790869060040161073f565b60006040518083038186803b15801561031157600080fd5b505afa158015610325573d6000803e3d6000fd5b505050506040513d6000823e601f3d908101601f1916820160405261034d91908101906105be565b9050806001835161035e91906107ad565b8151811061021c57634e487b7160e01b600052603260045260246000fd5b604080516002808252606080830184529260208301908036833701905050905084816000815181106103be57634e487b7160e01b600052603260045260246000fd5b60200260200101906001600160a01b031690816001600160a01b031681525050838160018151811061040057634e487b7160e01b600052603260045260246000fd5b6001600160a01b039092166020928302919091019091015260006104264261012c610795565b60405163fb3bdb4160e01b81529091506001600160a01b0385169063fb3bdb419061045b908a90869088908790600401610760565b600060405180830381600087803b15801561047557600080fd5b505af1158015610489573d6000803e3d6000fd5b505050506040513d6000823e601f3d908101601f191682016040526104b191908101906105be565b5050505050505050565b600080826001600160a01b031663ad5c46486040518163ffffffff1660e01b815260040160206040518083038186803b1580156104f757600080fd5b505afa15801561050b573d6000803e3d6000fd5b505050506040513d601f19601f8201168201806040525081019061052f9190610552565b9392505050565b600060208284031215610547578081fd5b813561052f816107f0565b600060208284031215610563578081fd5b815161052f816107f0565b60008060008060808587031215610583578283fd5b843561058e816107f0565b9350602085013561059e816107f0565b925060408501356105ae816107f0565b9396929550929360600135925050565b600060208083850312156105d0578182fd5b825167ffffffffffffffff808211156105e7578384fd5b818501915085601f8301126105fa578384fd5b81518181111561060c5761060c6107da565b8381026040518582820101818110858211171561062b5761062b6107da565b604052828152858101935084860182860187018a1015610649578788fd5b8795505b8386101561066b57805185526001959095019493860193860161064d565b5098975050505050505050565b600080600080600060a0868803121561068f578081fd5b8535945060208601356106a1816107f0565b935060408601356106b1816107f0565b925060608601356106c1816107f0565b915060808601356106d1816107f0565b809150509295509295909350565b6000815180845260208085019450808401835b838110156107175781516001600160a01b0316875295820195908201906001016106f2565b509495945050505050565b6001600160a01b0391909116815260200190565b90815260200190565b60008382526040602083015261075860408301846106df565b949350505050565b60008582526080602083015261077960808301866106df565b6001600160a01b03949094166040830152506060015292915050565b600082198211156107a8576107a86107c4565b500190565b6000828210156107bf576107bf6107c4565b500390565b634e487b7160e01b600052601160045260246000fd5b634e487b7160e01b600052604160045260246000fd5b6001600160a01b038116811461080557600080fd5b5056fea26469706673582212203322ee1dc71bf878f2bd37c5206c7f8a963bc304305f199e63af9b57e41e488564736f6c63430008000033",
  "immutableReferences": {},
  "source": "pragma solidity ^0.8.0;\r\n\r\nimport {IUniswapV2Router} from \"./Interfaces.sol\";\r\n\r\n/*\r\n* @notice The scope of this contract is just to execute the test. Remember to use a forked network. Read Readme\r\n*/\r\ncontract UniswapV2Router {\r\n\r\n    // get how much tokenB you can get by giving n tokenA to some router\r\n    function getAmountOutMin(address router, address _tokenIn, address _tokenOut, uint256 _amount) public view returns (uint256) {\r\n        address[] memory path;\r\n        path = new address[](2);\r\n        path[0] = _tokenIn;\r\n        path[1] = _tokenOut;\r\n        uint256[] memory amountOutMins = IUniswapV2Router(router).getAmountsOut(_amount, path);\r\n        return amountOutMins[path.length - 1];\r\n    }\r\n\r\n    // get how much tokenA you can get by giving n tokenB to some router\r\n    function getAmountInMin(address router, address _tokenIn, address _tokenOut, uint256 _amount) public view returns (uint256) {\r\n        address[] memory path;\r\n        path = new address[](2);\r\n        path[0] = _tokenIn;\r\n        path[1] = _tokenOut;\r\n        uint256[] memory amountOutMins = IUniswapV2Router(router).getAmountsIn(_amount, path);\r\n        return amountOutMins[0];\r\n    }\r\n\r\n    // _amount is the amount you want of the token requested\r\n    function swapEthForTokens(uint _amount, address _wethTokenIn, address _tokenOut, address _router, address _to) public payable {\r\n        address[] memory path;\r\n        path = new address[](2);\r\n        path[0] = _wethTokenIn;\r\n        path[1] = _tokenOut;\r\n        uint deadline = block.timestamp + 300;\r\n        IUniswapV2Router(_router).swapETHForExactTokens(_amount, path, _to, deadline);\r\n    }\r\n\r\n    function getWethAddress(address _router) public view returns(address) {\r\n        address wethAddress = IUniswapV2Router(_router).WETH();\r\n\r\n        return wethAddress;\r\n    }\r\n\r\n}\r\n",
  "sourcePath": "C:\\Users\\odraode\\Desktop\\arbitrage\\arbitrage_dex\\contracts\\UniswapV2Router.sol",
  "compiler": {
    "name": "solc",
    "version": "0.8.0+commit.c7dfd78e.Emscripten.clang"
  },
  "schemaVersion": "3.4.10",
  "updatedAt": "2023-02-14T10:03:56.571Z",
  "networkType": "ethereum",
  "devdoc": {
    "kind": "dev",
    "methods": {},
    "version": 1
  },
  "userdoc": {
    "kind": "user",
    "methods": {},
    "version": 1
  }
}